:020000040800F2
:10000000A00E0020CD0100088F1E0008F51A000880
:100010008D1E00082B030008652200080000000068
:10002000000000000000000000000000931E000817
:100030003903000800000000911E0008951E00080A
:10004000E7010008E7010008E7010008E7010008F0
:10005000E7010008E7010008E7010008E7010008E0
:10006000E7010008E7010008E70100082D03000888
:10007000E7010008E7010008E7010008E7010008C0
:10008000E7010008E7010008E7010008E7010008B0
:10009000E7010008E7010008E7010008E7010008A0
:1000A000E7010008E7010008E7010008E701000890
:1000B000E7010008E7010008151F0008E701000834
:1000C000E7010008E7010008E7010008E701000870
:1000D000E7010008E7010008E7010008E701000860
:1000E000E7010008E7010008E7010008E701000850
:1000F000E7010008E7010008E7010008E701000840
:10010000E7010008E7010008E7010008E70100082F
:10011000E7010008E7010008E7010008E70100081F
:10012000E7010008E7010008E7010008E70100080F
:1001300000F002F800F03AF80AA090E8000C8244BF
:100140008344AAF10107DA4501D100F02FF8AFF29C
:10015000090EBAE80F0013F0010F18BFFB1A43F0A5
:1001600001031847FC2100001C220000103A24BFA4
:1001700078C878C1FAD8520724BF30C830C144BF0C
:1001800004680C607047000000230024002500264E
:10019000103A28BF78C1FBD8520728BF30C148BFEA
:1001A0000B6070471FB51FBD10B510BD00F058F8AB
:1001B0001146FFF7F7FF02F067F800F076F803B496
:1001C000FFF7F2FF03BC00F07DF80000094880470C
:1001D00009480047FEE7FEE7FEE7FEE7FEE7FEE729
:1001E000FEE7FEE7FEE7FEE704480549054A064B41
:1001F00070470000131F000831010008A002002012
:10020000A00E0020A0060020A00600204FF0000253
:1002100000B5134694469646203922BFA0E80C50FC
:10022000A0E80C50B1F12001BFF4F7AF090728BFD7
:10023000A0E80C5048BF0CC05DF804EB890028BF53
:1002400040F8042B08BF704748BF20F8022B11F07C
:10025000804F18BF00F8012B7047704770477047F8
:10026000754600F02BF8AE4605006946534620F06F
:100270000700854618B020B5FFF7B6FFBDE820405F
:100280004FF000064FF000074FF000084FF0000B52
:1002900021F00701AC46ACE8C009ACE8C009ACE805
:1002A000C009ACE8C0098D46704710B50446AFF3ED
:1002B00000802046BDE81040FFF781BF004870472E
:1002C0004002002001491820ABBEFEE726000200D4
:1002D0007047000070B5044600688168C943C907CB
:1002E00017D1816821F00101816000F0F3FB054620
:1002F0000AE000BF00F0EEFB401B022804D9206892
:100300008068C043C00706D020688068C043C0072B
:10031000F0D0002070BDA06A40F01000A062E06A3A
:1003200040F00100E062012070BDFEE7014800F0EE
:100330006DB90000FC010020704772B6FEE70000B6
:10034000F8B50024009490F824202546012A12D004
:10035000012280F824204A681F23072A0DD206684C
:10036000776B521E02EB820293409F430B689340CF
:100370001F43776319E00220F8BD06680D2A0AD2F0
:10038000376BD21F02EB820293409F430B6893406E
:100390001F43376309E0F76A0D3A02EB820293408C
:1003A0009F430B6893401F43F7620A680723066860
:1003B0000A2A0AD3F7680A3A02EB420293409F43A3
:1003C0008B6893401F43F76008E0376902EB4202F5
:1003D00093409F438B6893401F4337610A68102AFC
:1003E00001D0112A20D1124B02689A4217D193688A
:1003F0001B0219D4936843F4000393600968102921
:1004000012D10C490C4A0968B1FBF2F101EB8101F0
:10041000490000E0491E00910029FBD104E0816AF7
:1004200041F020018162012480F824502046F8BD6B
:10043000002401400C00002040420F002DE9F04153
:1004400004004FF000057FD0A06A002628B9E662BC
:1004500084F82460204600F081F82046FFF73AFF38
:10046000A16AC90600D420B1A06A40F01000A062C1
:100470006AE0A16A21F4885141F00201A162334986
:1004800023688B42E16904D1B1F5402F01D14FF4CB
:100490000021277B4FF4807C41EA470261680A43D0
:1004A000A168614508D0012906D0002194F814E024
:1004B000BEF1010F02D00AE06146F7E7C7B1A76AB3
:1004C00047F02007A762E76A47F00107E7625F6825
:1004D00027F469470F435F60236899681C4F3940D0
:1004E00011439960A16861450BD0012909D00CE046
:1004F000DFF860E0A7690EEB47370F4347F4006170
:10050000E5E7218A0D05A5F580152168CB6A23F45E
:1005100070032B43CB62216889680F4B19409142CD
:1005200008D1E662A16A21F0020141F00101A16255
:10053000BDE8F081A06A20F0020040F01000A06247
:10054000E06A40F00100E0620120F1E7003C014078
:10055000FDF7E1FF00E0FFFFFE0E1FFF70B586B064
:1005600000260546009601960296039600682149EA
:1005700088423DD12049886940F4007088618869CB
:1005800000F400700490886940F010008861886968
:1005900000F010000490886940F0080088618869C4
:1005A000032400F0080004903F20CDE900046946D0
:1005B000124800F08DF9009469461148019400F04A
:1005C00087F9114C0F48C4E900068020C4E9026095
:1005D00040002061800060612020A0610002E06195
:1005E000204600F037F908B1FFF7A7FE2C626562DC
:1005F00006B070BD00240140001002400010014010
:10060000000C014008000240FC0100202DE9F05FD1
:10061000C16B0A6801680B68046C4FF0040808FAA3
:1006200004F8844D844E854FDFF814C2DFF814922D
:10063000DFF814A2DFF814B2DFF814E218EA020FB0
:1006400065D05FEA437862D50A68920603D40A68E7
:1006500022F004020A60DFF8F0814FF48062016842
:1006600008F1140813011402414524D9A9420DD000
:10067000B1420FD0B9421AD0614515D0494515D0C5
:10068000514501D1120312E0594501D104220EE077
:10069000714501D140220AE06D4D1435A94206D0C2
:1006A0006B4A2832914201D11A4600E0224667493E
:1006B000091F0A6029E0A94213D0B14215D0B942FE
:1006C00020D061451BD049451BD0514502D14FF484
:1006D000800217E0414502D14FF0806212E0594597
:1006E00001D104220EE0714501D140220AE0584DAB
:1006F0001435A94206D0564A2832914201D11A46F1
:1007000000E022464B4908394A60C16A71E04FF067
:10071000020808FA04F818EA020F70D05FEA83783A
:100720006DD50A68920606D40A6822F00A020A60A9
:10073000012180F82110DFF810814FF40072016868
:1007400008F1140813011402414524D9A9420DD01F
:10075000B1420FD0B9421AD0614515D0494515D0E4
:10076000514501D1120312E0594501D102220EE098
:10077000714501D120220AE0354D1435A94206D039
:10078000334A2832914201D11A4600E022462F49CD
:10079000091F0A6029E0A94213D0B14215D0B9421D
:1007A00020D061451BD049451BD0514502D14FF4A3
:1007B000001217E0414502D14FF0007212E0594596
:1007C00001D102220EE0714501D120220AE0204D24
:1007D0001435A94206D01E4A2832914201D11A4648
:1007E00000E02246134908394A60002180F82010B1
:1007F000816A00291CD0BDE8F05F0847FFE70825A3
:10080000A540154214D01A0712D50A6822F00E022C
:100810000A6090F84020C36B012101FA02F25A608D
:10082000816380F82110002180F82010016BE0E73F
:10083000BDE8F09F080002401C000240300002406A
:1008400044000240580002406C000240080402408C
:100850001C04024030B560B11A4B026814219A4260
:1008600009D2194B1344B3FBF1F189000164174914
:100870000AE0012030BD134B5B421344B3FBF1F19E
:10088000890001640F490839C163022180F82110F1
:10089000136843F6F0718B43F0E901142143D0E96A
:1008A00002452C432143046921434469214384695F
:1008B00021431943116000214163012242770177EE
:1008C000084630BD08040240F8FFFDBF00000240AA
:1008D0002DE9F84FDFF8C8910024A9F1040B234655
:1008E0000F2709F1040AABF1040ED1E00125A54060
:1008F00006EA0502AA4276D1DFF8A8C14E68A6EB47
:100900000C0866452BD00DDC032E34D005DC36B345
:10091000012E19D0022E2FD11BE0112E16D0122E2F
:100920002AD119E0B8F5881F19D006DCB8F5803F48
:1009300015D0B8F5801F1FD111E0B8F5001F0ED0FB
:10094000B8F5041F18D10AE0CB6815E0CB681B1D71
:1009500012E0CB6808330FE0CB680C330CE08B68F7
:100960002BB1012B4FF0080303D0456104E00423B1
:1009700002E0056100E00023FF2A01D8064601E0FD
:1009800000F104064FEA840501D9A5F12005D6F847
:10099000008007FA05FC28EA0C0803FA05F548EA86
:1009A0000508C6F800804D68ED0070D53E4DAE6973
:1009B00046F00106AE61AD6924F0030605F00105BD
:1009C00000953A4D06EB050CDCF80850A607360FEB
:1009D00007FA06F825EA0805DFF8D480404503D178
:1009E0004FF0000825E052E0DFF8C880404502D112
:1009F0004FF001081DE0DFF8C080404502D14FF004
:100A0000020816E0DFF8B480404502D14FF0030839
:100A10000FE0DFF8AC80404502D14FF0040808E059
:100A2000DFF8A080404502D14FF0050801E04FF00B
:100A3000060808FA06F848EA0508CCF808804D6868
:100A4000D9F80060ED024D4601D5164300E096430B
:100A50002E604D68DAF80060AD02554601D51643A8
:100A600000E096432E604D68DBF80060AD035D4604
:100A700001D5164300E096432E604D68DEF8006015
:100A8000ED03754601D5164300E096432E60641CC5
:100A90000A681646E2407FF429AFBDE8F88F0000EF
:100AA0000804014000001110001002400000014045
:100AB00000080140000C01400010014000140140FA
:100AC00000180140001C01400AB10161704709048F
:100AD000FBE700000148806870470000000000202C
:100AE00070B5040025D094F83D00002520B984F8A5
:100AF0003C50204600F0B8F8242084F83D002068DF
:100B0000016821F0010101602068016841F40041A1
:100B100001602068016821F40041016000F072FA70
:100B20004D4A6168914201D84C4900E04C498842E5
:100B300001D2012070BD4B492368B0FBF1F15E6822
:100B400026F03F060E435E606368934206D94FF479
:100B5000967359434FF47A73B1FBF3F12368491C40
:100B60001E6A26F03F06314319626168914210D82F
:100B70004900401EB0FBF1F2521CC2F30B02042AE2
:100B800001D2042022E0B0FBF1F0401CC0F30B00C6
:100B90001CE0A268F2B301EBC10303EB0116431E94
:100BA000B3FBF6F35B1C43F480431B0549D092B3BF
:100BB00001EBC10202EB0111401EB0FBF1F0401C41
:100BC000C0F30B0040F4804040F400402168CA6943
:100BD0004CF6FF739A431043C861D4E907100143F0
:100BE0002068026822F0C00211430160D4E90301C9
:100BF00001432068826848F2FF339A4311438160C1
:100C0000D4E9050108432168CA6822F0FF021043B5
:100C1000C86001E00EE016E02068016841F00101C3
:100C200001602564202084F83D00256384F83E504F
:100C3000002070BD01EB4106431EB3FBF6F35B1CC5
:100C4000B3E70120C2E701EB4101401EB0FBF1F028
:100C5000401CC0F30B00B7E7A086010080841E0093
:100C600000093D0040420F0010B586B00021009100
:100C700001910291039100680F4988421AD10F4CEB
:100C8000A06940F00800A061A069694600F0080072
:100C90000490C02000901220019003200390084887
:100CA000FFF716FEE06940F40010E061E06900F42F
:100CB0000010049006B010BD005400400010024027
:100CC000000C01400248816802781144816070473D
:100CD00000000020074810B5016841F010010160D4
:100CE000032000F071F80F2000F006F800F024F85F
:100CF000002010BD0020024070B50D4D04464FF499
:100D00007A712878B1FBF0F00A490968B1FBF0F07C
:100D100000F04EFB48B9102C07D200222146501E8D
:100D200000F032F800206C6070BD012070BD000042
:100D3000000000200C0000200B4882B0816941F0C7
:100D400001018161816901F001010091C16941F0F6
:100D50008051C161C069002200F0805000900F21D5
:100D6000901E02B000F010B800100240002809DB0D
:100D700000F01F02012191404009800000F1E020B5
:100D8000C0F8001170470000F0B40E4B1B680C4611
:100D9000C3F30223C3F10705042D00D90425191D4F
:100DA000072901D2002300E0DB1E012606FA05F127
:100DB000491E214099409E40761E16403143F0BCAA
:100DC00001F051BA0CED00E0064900F00702086896
:100DD0004FF6FF03184040EA0220034A1043086020
:100DE000704700000CED00E00000FA052DE9F84323
:100DF00005460078354CC00754D0E0690026C00095
:100E000008D4E06940F08050E061E069012600F01C
:100E1000805000902E480168C90512D401688046B0
:100E200041F480710160FFF755FE074605E000BF01
:100E3000FFF750FEC01B642823D8D8F80000C00577
:100E4000F6D5206A10F4407021D0A98801F44071D1
:100E500081421CD0206A1F49012220F440700A60A0
:100E600000220A602062C00711D0FFF733FE074658
:100E700041F2883808E000BFFFF72CFEC11B414556
:100E800002D90320BDE8F883206A8007F4D5206AE0
:100E9000696820F44070084320621EB1E06920F0C8
:100EA0008050E0612878800705D56068A96820F443
:100EB0004040084360602878C00605D560686969CD
:100EC00020F48000084360600020DBE7001002404F
:100ED00000700040400442422DE9F0470F460500F3
:100EE00061D0434E306800F00700B84209D2306844
:100EF00020F0070038433060306800F00700B84247
:100F000051D128683B4C810712D5400703D5606852
:100F100040F4E06060602878000703D5606840F422
:100F2000605060606068A96820F0F000084360606D
:100F30002878C00728D06868012810D021680228C6
:100F400010D0890700292EDA616821F003010143DE
:100F50006160FFF7BFFD804641F288390DE02168EE
:100F60008903EFE78901EDE7FFF7B4FDA0EB080186
:100F7000494502D90320BDE8F0876068696800F040
:100F80000C00B0EB810FEFD1306800F00700B842E1
:100F90000BD9306820F0070038433060306800F02B
:100FA0000700B84201D00120E5E72878400705D5C1
:100FB0006068E96820F4E060084360602878000712
:100FC00006D56068296920F4605040EAC10060607D
:100FD00000F038F86168084AC1F30311515CC84059
:100FE0000649086006480068FFF786FE0020C2E751
:100FF0000020024000100240462300080C000020A0
:10100000040000200448054900684968044AC1F307
:101010000221515CC84070470C00002000100240C3
:10102000562300080448054900684968044AC1F38A
:10103000C221515CC84070470C00002000100240E3
:10104000562300080E4A51680E4801F00C03042B89
:1010500011D0082B0FD10C48C1F38343C903C05CE6
:101060000AD55168084AC1F34041921E515C054AB5
:101070005043B0FBF1F0704704494843704700000B
:101080000010024000127A003623000800093D00DB
:101090002DE9F84F040070D02078C04DC00749D02A
:1010A0006868C0F38100012807D06868C0F3810038
:1010B000022809D16868C00306D52868800339D59D
:1010C00060680028E7D035E06068B0F5803F0BD05D
:1010D00010B1B0F5A02F11D0286820F4803028601E
:1010E000286820F4802002E0286840F480302860DE
:1010F000606890B1FFF7EEFC06460AE0286840F40D
:1011000080202860F0E700BFFFF7E4FC801B642824
:1011100073D828688003F7D50CE0FFF7DBFC0646A0
:1011200005E000BFFFF7D6FC801B6428F0D82868D4
:101130008003F7D420789A4E80074FF001094FF0D2
:10114000000839D5686810F00C0F07D06868C0F344
:101150008100022809D16868C00306D42868800786
:1011600014D52069012808D110E02069B0B1C6F873
:101170000090FFF7AFFC074605E00AE1FFF7AAFC85
:10118000C01B0228C4D828688007F7D52868616981
:1011900020F0F80040EAC10028600DE0C6F80080A9
:1011A000FFF798FC074604E0FFF794FCC01B0228F9
:1011B00023D828688007F7D4207800072CD57948F1
:1011C000A169D9B1C0F80090FFF784FC074604E09C
:1011D000FFF780FCC01B02280FD8686A8007F7D58C
:1011E00071484FF4FA510068B0FBF1F0009000BF75
:1011F0000098411E0091FAD20EE080E0C0F8008015
:10120000FFF768FC074604E0FFF764FCC01B0228F8
:1012100075D8686A8007F7D42078400760D5E869F8
:101220000027C00008D4E86940F08050E861E86910
:10123000012700F0805000905C480168C90513D474
:101240000168834641F480710160FFF743FC8246E8
:1012500006E000BFFFF73EFCA0EB0A0064284ED872
:10126000DBF80000C005F5D5E06801280AD008B118
:10127000052813D0286A20F001002862286A20F08F
:10128000040002E0286A40F001002862E06841F2B0
:10129000883B98B1FFF71EFC82460BE0286A40F0BD
:1012A00004002862EEE700BFFFF714FCA0EB0A0180
:1012B00059455AD8286A8007F6D50CE0FFF70AFC92
:1012C000824605E0FFF706FCA0EB0A0159454CD821
:1012D000286A8007F6D41FB1E86920F08050E861E1
:1012E000E06988B36968C1F38101022944D002280A
:1012F000C6F8608004D0FFF7EDFB044638E034E028
:10130000FFF7E8FB074604E0FFF7E4FBC01B0228F9
:101310002BD828688001F7D4206AB0F5803F05D12A
:101320006868A16820F4003008436860D4E90801C7
:101330000843696821F4741108436860C6F8609036
:10134000FFF7C8FB044606E025E000BFFFF7C2FB3D
:10135000001B022809D828688001F7D51BE000BFD0
:10136000FFF7B8FB001B022802D90320BDE8F88F65
:1013700028688001F4D40EE00128F7D06868226A5A
:1013800000F48031914204D1616A00F47010884207
:1013900001D00120EAE70020E8E700000010024049
:1013A00000004242800442420C00002000700040D5
:1013B00010B5401EB0F1807F01D3012010BD4FF069
:1013C000E02460610F21601700F04DFF0020A06154
:1013D00007202061002010BD7047704710B590F8BD
:1013E0003C20012A22D0012280F83C20CA688C6867
:1013F00022F4407222434C6822F4806222430C683B
:1014000022F4006222430C6922F4805222434C6988
:1014100022F400522243C969002322F480420A4385
:1014200001684A6480F83C30002010BD022010BDE5
:1014300070B590F83C20012A2CD0012480F83C4063
:10144000022280F83D2003685A689D6822F07006E9
:101450000A6832435A60104B02689A420ED00F4B12
:101460009A420BD0B2F1804F08D00D4B9A4205D072
:101470000C4B9A4202D00C4B9A4204D1496825F099
:1014800080031943916080F83D40002180F83C10B2
:10149000084670BD022070BD002C014000340140A0
:1014A0000004004000080040000C004010B504009B
:1014B00003D094F83D0010B107E0012010BD0020DA
:1014C00084F83C00204600F01FF8022084F83D001C
:1014D000211D206800F024FD012084F8460084F8D6
:1014E0003E0084F83F0084F8400084F8410084F80E
:1014F000420084F8430084F8440084F8450084F8EE
:101500003D00002010BD000008B500680B4988426E
:1015100012D10B48C16941F00401C161C0690022C8
:1015200000F00400009001211E20FFF72DFCBDE813
:1015300008401E20FFF71ABC08BD0000000800404C
:101540000010024070B5044690F83C0000250128C8
:1015500017D0012684F83C60022084F83D00206802
:10156000826822F0770222F47F4282600868502865
:1015700038D00DDC20284FD005DC90B3102811D1D5
:101580004AE0022070BD302846D040280AD13BE016
:1015900060282FD070280DD0B0F5805F03D0B0F553
:1015A000005F12D0012584F83D60002084F83C00E3
:1015B000284670BDCB68D1E90121206800F0FEFC0F
:1015C0002068816841F0770109E0CB68D1E9012109
:1015D000206800F0F3FC2068816841F4804181605C
:1015E000E1E719E0CA684968206800F0BBFD5021B6
:1015F000206806E0CA684968206800F0C4FD6021E0
:10160000206800F0E5FCCEE7CA684968206800F071
:10161000A9FD40212068F4E7226801461046F0E762
:101620002DE9F0410D46040003D094F83D0018B1B7
:1016300008E00120BDE8F081002084F83C0020464D
:1016400000F040F8022084F83D002068816844F2F0
:10165000070291438160211D206800F061FC22682F
:1016600090689169166A2B68AF69034340F20330B2
:10167000814341EA0721A868EF6908434FF6FC411E
:101680008843E96840EA0720014328692F6A00017E
:1016900040EA0730084369686D6926F0220646EA89
:1016A0000515294393602268906154F8460B016246
:1016B000012004F81F09E0752076E0762077A075F8
:1016C0000020B7E700B585B000210091019102919B
:1016D0000391026818491948B2F1804F19D0184B8C
:1016E0009A4214D1CA6942F00202CA61CA6902F080
:1016F000020204928A6942F004028A61896901F057
:1017000004010491C02100916946FFF7E1F805B09A
:1017100000BDCA6942F00102CA61CA6902F0010251
:1017200004928A6942F004028A61896901F0040125
:1017300004910321E7E70000001002400008014087
:101740000004004070472DE9F04104460068C66877
:1017500005694FF00007A90713D5B10711D5F91E88
:10176000016101202077206880698007204602D02F
:10177000FFF7E8FF04E000F0A7F8204600F04CF97E
:101780002777680716D5700714D521686FF0040015
:101790000861022020772068806910F4407F20468D
:1017A00002D0FFF7CFFF04E000F08EF8204600F0F3
:1017B00033F92777280715D5300713D521686FF03F
:1017C00008000861042020772068C069800720464F
:1017D00002D0FFF7B7FF04E000F076F8204600F0F3
:1017E0001BF92777E80616D5F00614D521686FF0A7
:1017F00010000861082020772068C06910F4407F3D
:10180000204602D0FFF79EFF04E000F05DF820467E
:1018100000F002F92777E80708D0F00706D0216822
:101820006FF001000861204600F0F7F8280608D59F
:10183000300606D521686FF0800008612046FFF76A
:10184000CBFD680608D5700606D521686FF040000C
:101850000861204600F0E2F8A8060AD5B00608D5CF
:1018600021686FF0200008612046BDE8F041FFF7D5
:10187000B4BDBDE8F081000000B585B00021009145
:1018800001910291039100680C49884213D10C48E0
:10189000816941F0040181618069694600F00400BA
:1018A00004904FF4407000900220019003200390B8
:1018B0000448FFF70DF805B000BD0000002C014002
:1018C0000010024000080140704770B5044690F8CF
:1018D0003C0000260D4601280FD0012084F83C0072
:1018E0006AB1042A1DD0082A2FD00C2A3FD0012625
:1018F000002084F83C00304670BD022070BD206896
:1019000000F06EFB2068816941F008018161206868
:10191000816921F004018161206881692A6911438C
:1019200011E0206800F08CFB2068816941F40061BF
:1019300081612068816921F4806181612068816909
:101940002A6941EA02218161D2E7206800F0AEFBFA
:101950002068C16941F00801C1612068C16921F0B6
:101960000401C1612068C1692A69114311E020683E
:1019700000F0D0FB2068C16941F40061C1612068BA
:10198000C16921F48061C1612068C1692A6941EAA5
:101990000221C161ACE710B5040003D094F83D000A
:1019A00010B107E0012010BD002084F83C00204663
:1019B00000F01EF8022084F83D00211D206800F090
:1019C000AFFA012084F8460084F83E0084F83F0016
:1019D00084F8400084F8410084F8420084F8430011
:1019E00084F8440084F8450084F83D00002010BDD0
:1019F00008B500680649884208D10648816941F463
:101A000000618161806900F40060009008BD000001
:101A1000002C01400010024070477047704770B5BD
:101A2000040004D094F84100002510B106E0012024
:101A300070BD84F84050204600F024F8242084F83B
:101A400041002068C16821F40051C160204600F0C7
:101A5000ADFB2068016921F4904101612068416972
:101A600021F02A0141612068C16841F40051C16040
:101A70006564202084F8410084F8420065630020FA
:101A800070BD000030B585B000240094019402942C
:101A9000039400681449884224D11448C16941F470
:101AA0008021C161C16901F480210491816941F003
:101AB0000801816180690E4D00F0080004904FF428
:101AC0008060009002200190032003906946284620
:101AD000FEF7FEFEE814CDE90004694628460294AC
:101AE000FEF7F6FE05B030BD004800400010024091
:101AF000000C0140FEE700003EB500213748009190
:101B00000191354A029102609215826001250573A8
:101B1000017508244FF460220461C2614160FEF740
:101B20008DFC08B172B6FEE7CDE900450625694691
:101B30002A480295FEF704FC08B172B6FEE70920B8
:101B400000900220019069462448FEF7F9FB08B195
:101B500072B6FEE70A2000900320019069461F48F4
:101B6000FEF7EEFB08B172B6FEE70B2000900420F2
:101B7000019069461948FEF7E3FB08B172B6FEE72B
:101B80000C2000900520019069461448FEF7D8FB10
:101B900008B172B6FEE70D20CDE9000569460F4891
:101BA000FEF7CEFB08B172B6FEE70E2000900720CC
:101BB000019069460948FEF7C3FB08B172B6FEE71B
:101BC0000F20CDE9000469460448FEF7B9FB002860
:101BD00001D072B6FEE73EBD002401401000002097
:101BE0002DE9F04385B00024294800940194029423
:101BF0000394816941F020018161816901F0200134
:101C00000491816941F010018161816901F0100145
:101C10000491816941F004018161816901F004014D
:101C20000491816941F0080181618069DFF8648075
:101C300000F008004FF47045049000222946404609
:101C4000FEF742FFDFF850904FF4986700223946C4
:101C50004846FEF739FF0095022601250396CDE997
:101C6000015469464046FEF733FE00970396CDE9DE
:101C7000015469464846FEF72BFE4FF440708DE84C
:101C8000310069464846FEF723FE05B0BDE8F08303
:101C900000100240000C01400010014010B592B04D
:101CA00000240F941C2168461094FEF7AFFA2021FF
:101CB00007A8FEF7ABFA24482249C0E9001440F611
:101CC0000F61C0E90241046144618461FFF763FE72
:101CD00008B172B6FEE70F940FA91B481094FFF7E6
:101CE000A7FB08B172B6FEE76020CDE900040294BC
:101CF0000394049405940022694613480694FFF760
:101D0000E4FD08B172B6FEE7042269460E48FFF70B
:101D1000DCFD08B172B6FEE70794089409944FF40D
:101D200000500A94CDE90B4007A907480E94FFF72D
:101D300055FB08B172B6FEE70348FFF79DFD12B0F0
:101D400010BD0000002C01409400002010B58CB0A4
:101D500024216846FEF75AFA0024164809944FF0E9
:101D600080410A94C0E900144FF6FF71C0E90241B6
:101D7000046184610320CDE900040120CDE902045F
:101D800006210491CDE90540CDE90741694609489E
:101D9000FFF746FC08B172B6FEE7099409A90548A9
:101DA0000A94FFF745FB002801D072B6FEE70CB09D
:101DB00010BD0000DC00002010B58CB02421684666
:101DC000FEF724FA00241648099414490A94C0E93D
:101DD00000144FF6FF71C0E90241046184610320E1
:101DE000CDE900040120CDE9020406210491CDE9EA
:101DF0000540CDE9074169460948FFF711FC08B1E4
:101E000072B6FEE7099409A905480A94FFF710FB8A
:101E1000002801D072B6FEE70CB010BD00040040EF
:101E20002401002010B586B00024174800940194C6
:101E30000294039404941349059401604721C0E976
:101E4000011440F2E731C0E903148461FFF72EFB6F
:101E500008B172B6FEE74FF48050009069460A4818
:101E6000FFF770FB08B172B6FEE7049404A90648B8
:101E70000594FFF7DDFA002801D072B6FEE706B040
:101E800010BD0000000800406C010020FEE7FEE7E6
:101E900070477047FEF716BF30B595B028216846E9
:101EA000FEF7B4F914210AA8FEF7B0F918210FA81B
:101EB000FEF7ACF901210804CDE9001000250295D8
:101EC00002240491CDE907404FF4E01009906846E0
:101ED000FFF7DEF808B172B6FEE70AA90F2081E825
:101EE00031004FF48060CDE90D0502210AA8FEF70C
:101EF000F3FF08B172B6FEE74FF4004011900F9463
:101F00000FA8FEF773FF002801D072B6FEE715B0E8
:101F100030BD70470148FFF716BC00006C0100207F
:101F2000F0B50268204C214D214E224F224B4FF03C
:101F3000804CA04209D0984207D0604505D0A84205
:101F400003D0B04201D0B84204D122F0700E4A68EA
:101F500042EA0E02A04209D0984207D0604505D05F
:101F6000A84203D0B04201D0B84203D122F4407558
:101F7000CA682A434D6922F080022A4302608A68B7
:101F8000C2620A688262A04201D0984201D1096906
:101F90000163012141610169C90703D0016921F091
:101FA00001010161F0BD0000002C0140000400406F
:101FB00000080040000C00400034014010B5846867
:101FC00042EA032224F47F440A432243826010BD84
:101FD000826822F070020A4342F007018160704774
:101FE000F0B5036A026A22F0010202624268846963
:101FF000124E24F073050C682C4323F002058B6805
:102000002B430D4DA84201D0B04205D123F0080763
:10201000CB683B4323F00403A84201D0B04205D172
:102020004D6922F4407215438A692A4342608461F3
:10203000496841630362F0BD002C01400034014057
:10204000F0B5026A036A23F01003036243688469EF
:102050000D6824F4E64444EA05248D6822F0200249
:1020600042EA05120F4D104EA84201D0B04206D1EF
:10207000CF6822F0800242EA071222F04002A84212
:1020800001D0B04207D14D6923F4406343EA850390
:102090008D6943EA85034360846149688163026214
:1020A000F0BD0000002C014000340140F0B5026A90
:1020B000036A23F4807303624368C46922F40072E4
:1020C00024F073050C68124E2C438D6842EA0522F9
:1020D0000E4DA84201D0B04206D1CF6822F4006272
:1020E00042EA072222F48062A84201D0B04207D11E
:1020F0004D6923F4405343EA05138D6943EA051300
:102100004360C4614968C1630262F0BD002C0140B4
:102110000034014030B5046A026A22F4805202623F
:102120004268C3690D6823F4E64343EA05238D68DA
:1021300024F4005444EA0534084DA84202D0084D66
:10214000A84204D14D6922F4804242EA85124260DD
:10215000C36149680164046230BD0000002C014085
:102160000034014010B5036A046A24F001040462DB
:10217000846924F0F00444EA021423F00A020A43BA
:102180008461026210BD10B5036A046A24F0100471
:102190000462846923F0A00324F4704444EA023208
:1021A00043EA01118261016210BD000070B504466E
:1021B00000680169E26821F440511143016121691D
:1021C000A0680843616908432168CA6841F20C634A
:1021D0009A430243CA6020684169A26921F44071B0
:1021E000114341611E492068884202D1FEF71AFF5F
:1021F00001E0FEF707FF00EBC00101EB0012606891
:1022000064218000B2FBF0F3B3FBF1F36FF018062A
:102210007343B2FBF0F5B2FBF0F605EB8305322316
:1022200003EB0515B5FBF1F5B6FBF1F605F0F0058E
:1022300005EB0615B2FBF0F6B2FBF0F0B0FBF1F0E7
:102240006FF01802504306EB800003EB0010B0FB68
:10225000F1F0216800F00F002844886070BD000094
:1022600000380140FEE70907090E002804DB00F1F1
:10227000E02080F80014704700F00F0000F1E0202B
:1022800080F8141D7047000008B5FEF723FDFFF726
:1022900003FEFFF7A5FC2148416941F001014161BE
:1022A0004069002200F00100009002210B20FEF79F
:1022B0006BFD0B20FEF75AFDFFF71EFC194818496D
:1022C000002401601849C0E901144FF48041C0E9BD
:1022D000034144618461C4610462FEF701FC08B1FA
:1022E00072B6FEE7FFF7DAFCFFF730FDFFF764FD9B
:1022F000FFF798FD0E480D4901604FF4E131C0E948
:1023000001140C21C460C0E904418461C461FFF779
:1023100086FB08B172B6FEE7FEE70000001002403F
:102320000054004040000020A0860100004800400A
:10233000B4010020010202030405060708090A0B84
:102340000C0D0E0F10100000000000000000010234
:10235000030406070809000000000102030400004E
:102360008023000800000020100000006C0100081D
:102370009023000810000020900E00008801000843
:1023800001000000100000000000000000127A00B0
:0400000508000131BD
:00000001FF
